:020000040800F2
:100000008806002089010008470C0008310B000811
:10001000450C00088F020008A30C00080000000037
:100020000000000000000000000000004B0C000871
:100030005503000800000000490C00084D0C0008A2
:10004000A3010008A3010008A3010008A301000800
:10005000A3010008A3010008A3010008A3010008F0
:10006000A3010008A3010008A3010008A3010008E0
:10007000A3010008A3010008A3010008A3010008D0
:10008000A3010008A3010008A3010008A3010008C0
:10009000A3010008A3010008A3010008A3010008B0
:1000A000A3010008A3010008A3010008A3010008A0
:1000B000A3010008A301000800000000A30100083C
:1000C000A30100080000000000000000A3010008D8
:1000D00000000000A3010008A301000800000000C8
:1000E000A3010008A3010008A301000800F002F822
:1000F00000F03AF80AA090E8000C82448344AAF188
:100100000107DA4501D100F02FF8AFF2090EBAE885
:100110000F0013F0010F18BFFB1A43F0010318473B
:10012000EC0E00000C0F0000103A24BF78C878C114
:10013000FAD8520724BF30C830C144BF04680C60ED
:10014000704700000023002400250026103A28BF35
:1001500078C1FBD8520728BF30C148BF0B60704739
:100160001FB51FBD10B510BD00F058F81146FFF7C0
:10017000F7FF00F0A7FD00F076F803B4FFF7F2FFF9
:1001800003BC00F07DF8000009488047094800479B
:10019000FEE7FEE7FEE7FEE7FEE7FEE7FEE7FEE737
:1001A000FEE7FEE704480549054A064B7047000094
:1001B000A10C0008ED00000888000020880600203F
:1001C00088020020880200204FF0000200B513468C
:1001D00094469646203922BFA0E80C50A0E80C5067
:1001E000B1F12001BFF4F7AF090728BFA0E80C5018
:1001F00048BF0CC05DF804EB890028BF40F8042B11
:1002000008BF704748BF20F8022B11F0804F18BF7D
:1002100000F8012B7047704770477047754600F033
:100220002BF8AE4605006946534620F00700854688
:1002300018B020B5FFF7B6FFBDE820404FF000062C
:100240004FF000074FF000084FF0000B21F00701BE
:10025000AC46ACE8C009ACE8C009ACE8C009ACE801
:10026000C0098D46704710B50446AFF300802046A4
:10027000BDE81040FFF781BF004870472400002010
:1002800001491820ABBEFEE7260002007047FEE7DA
:100290002DE9F05F2D4D2E4FAE1C68784FF0000811
:1002A00003283ED2002405F10A094FF00F0A4FF44B
:1002B000005B315D19F8040081421AD1072C2DD161
:1002C000002001213154401C0828FBDB012285F865
:1002D0000080940385F801802146384600F033F908
:1002E000C82000F039F800222146384600F02BF9EA
:1002F00017E0002051463154401C0828FBDB85F8EC
:10030000008001225946384600F01DF9C82000F04F
:1003100023F800225946384600F015F9641C082CD1
:10032000C7DB6878401CC0B2687003280CD100207D
:1003300041463154401C0828FBDB3846BDE8F05FDD
:100340000122D10300F0FFB8BDE8F09F00000020BB
:10035000001001407047000070B5044600F0F8F846
:100360000546601C02D004480078044400F0F0F810
:10037000401BA042FAD370BD140000202DE9F84FB5
:10038000DFF89C910024A9F1040B23460F2709F103
:10039000040AABF1040EBBE00125A5402A40AA42A5
:1003A00076D1DFF880C14E68A6EB0C0866452BD0ED
:1003B0000DDC032E34D005DC36B3012E19D0022E0D
:1003C0002FD11BE0112E16D0122E2AD119E0B8F52C
:1003D000881F19D006DCB8F5803F15D0B8F5801F0E
:1003E0001FD111E0B8F5001F0ED0B8F5041F18D1C9
:1003F0000AE0CB6815E0CB681B1D12E0CB68083320
:100400000FE0CB680C330CE08B682BB1012B4FF065
:10041000080303D0456104E0042302E0056100E025
:100420000023FF2A01D8064601E000F104064FEA46
:10043000840501D9A5F12005D6F8008007FA05FC4E
:1004400028EA0C0803FA05F548EA0508C6F8008012
:100450004D68ED005BD5344DAE6946F00106AE61E6
:10046000AD6924F0030605F0010500952F4D06EB5C
:10047000050CDCF80850A607360F07FA06F825EA3F
:100480000805DFF8AC80404503D14FF0000810E0CC
:100490003DE0DFF8A080404502D14FF0010808E0C0
:1004A000DFF89480404502D14FF0020801E04FF0A0
:1004B000030808FA06F848EA0508CCF808804D68F1
:1004C000D9F80060ED024D4601D5164300E0964391
:1004D0002E604D68DAF80060AD02554601D516432E
:1004E00000E096432E604D68DBF80060AD035D468A
:1004F00001D5164300E096432E604D68DEF800609B
:10050000ED03754601D5164300E096432E60641C4A
:100510000A6832FA04F57FF43FAFBDE8F88F0000B7
:1005200008040140000011100010024000000140CA
:1005300000080140000C01400010014080680840A4
:1005400000D0012070470AB1016170470904FBE740
:10055000014880687047000014000020024881684C
:10056000027811448160704714000020074810B5DC
:10057000016841F010010160032000F067F80F20CE
:1005800000F006F800F024F8002010BD0020024022
:1005900070B50D4D04464FF47A712878B1FBF0F038
:1005A0000A490968B1FBF0F000F0AEFA48B9102C26
:1005B00007D200222146501E00F028F800206C606F
:1005C00070BD012070BD000014000020200000203C
:1005D0000C4808B5816941F001018161816901F030
:1005E00001010091C16941F08051C161C06900F011
:1005F000805000900448416821F0E06141F00071B2
:10060000416008BD0010024000000140F0B40E4BF4
:100610001B680C46C3F30223C3F10705042D00D960
:100620000425191D072901D2002300E0DB1E012645
:1006300006FA05F1491E214099409E40761E16405B
:100640003143F0BC00F02EBB0CED00E0064900F099
:10065000070208684FF6FF03184040EA0220034AE9
:1006600010430860704700000CED00E00000FA0540
:100670002DE9F0470F46050061D0434E306800F089
:100680000700B84209D2306820F0070038433060D4
:10069000306800F00700B84251D128683B4C810710
:1006A00012D5400703D5606840F4E06060602878A8
:1006B000000703D5606840F4605060606068A96816
:1006C00020F0F000084360602878C00728D06868F0
:1006D000012810D02168022810D0890700292EDABD
:1006E000616821F0030101436160FFF731FF80463B
:1006F00041F288390DE021688903EFE78901EDE7D0
:10070000FFF726FFA0EB0801494502D90320BDE809
:10071000F0876068696800F00C00B0EB810FEFD1E2
:10072000306800F00700B8420BD9306820F00700AD
:1007300038433060306800F00700B84201D0012033
:10074000E5E72878400705D56068E96820F4E060AF
:10075000084360602878000706D56068296920F49E
:10076000605040EAC100606000F018F86168084A13
:10077000C1F30311515CC84006490860064800688F
:10078000FFF706FF0020C2E70020024000100240F1
:10079000FA0F000820000020180000200E4A5168BF
:1007A0000E4801F00C03042B11D0082B0FD10C487C
:1007B000C1F38343C903C05C0AD55168084AC1F339
:1007C0004041921E515C054A5043B0FBF1F0704726
:1007D00004494843704700000010024000127A00AC
:1007E000EA0F000800093D002DE9F84F040070D021
:1007F0002078C04DC00749D06868C0F38100012847
:1008000007D06868C0F38100022809D16868C00376
:1008100006D52868800339D560680028E7D035E020
:100820006068B0F5803F0BD010B1B0F5A02F11D0AB
:10083000286820F480302860286820F4802002E0B6
:10084000286840F480302860606890B1FFF780FE2F
:1008500006460AE0286840F480202860F0E700BFE0
:10086000FFF776FE801B642873D828688003F7D5CD
:100870000CE0FFF76DFE064605E000BFFFF768FEDF
:10088000801B6428F0D828688003F7D420789A4E1B
:1008900080074FF001094FF0000839D5686810F063
:1008A0000C0F07D06868C0F38100022809D168687E
:1008B000C00306D42868800714D52069012808D110
:1008C00010E02069B0B1C6F80090FFF741FE07467E
:1008D00005E00AE1FFF73CFEC01B0228C4D82868E7
:1008E0008007F7D52868616920F0F80040EAC10068
:1008F00028600DE0C6F80080FFF72AFE074604E0F6
:10090000FFF726FEC01B022823D828688007F7D4EB
:10091000207800072CD57948A169D9B1C0F800909A
:10092000FFF716FE074604E0FFF712FEC01B022881
:100930000FD8686A8007F7D571484FF4FA510068FC
:10094000B0FBF1F0009000BF0098411E0091FAD278
:100950000EE080E0C0F80080FFF7FAFD074604E0F3
:10096000FFF7F6FDC01B022875D8686A8007F7D428
:100970002078400760D5E8690027C00008D4E869FE
:1009800040F08050E861E869012700F08050009055
:100990005C480168C90513D40168834641F480713D
:1009A0000160FFF7D5FD824606E000BFFFF7D0FDEE
:1009B000A0EB0A0064284ED8DBF80000C005F5D58E
:1009C000E06801280AD008B1052813D0286A20F071
:1009D00001002862286A20F0040002E0286A40F042
:1009E00001002862E06841F2883B98B1FFF7B0FD52
:1009F00082460BE0286A40F004002862EEE700BF60
:100A0000FFF7A6FDA0EB0A0159455AD8286A8007CE
:100A1000F6D50CE0FFF79CFD824605E0FFF798FD58
:100A2000A0EB0A0159454CD8286A8007F6D41FB1BB
:100A3000E86920F08050E861E06988B36968C1F333
:100A40008101022944D00228C6F8608004D0FFF753
:100A50007FFD044638E034E0FFF77AFD074604E006
:100A6000FFF776FDC01B02282BD828688001F7D439
:100A7000206AB0F5803F05D16868A16820F4003095
:100A800008436860D4E908010843696821F47411D7
:100A900008436860C6F86090FFF75AFD044606E018
:100AA00025E000BFFFF754FD001B022809D8286885
:100AB0008001F7D51BE000BFFFF74AFD001B0228AD
:100AC00002D90320BDE8F88F28688001F4D40EE035
:100AD0000128F7D06868226A00F48031914204D17D
:100AE000616A00F47010884201D00120EAE700201A
:100AF000E8E7000000100240000042428004424249
:100B0000200000200070004010B5401EB0F1807F32
:100B100001D3012010BD4FF0E02460610F21601768
:100B200000F0C0F80020A06107202061002010BD67
:100B3000FEE7000070B50E4D044600F001024FF4D0
:100B400080712846FFF7FFFCC4F340026915284670
:100B5000FFF7F9FCC4F3800229152846FFF7F3FCE0
:100B6000C4F3C002E9142846BDE87040FFF7EBBCAF
:100B7000000801402DE9F04786B000242D4800947C
:100B8000019402940394816941F0100181618169AB
:100B900001F010010491816941F0040181618169D2
:100BA00001F004010491816941F0080181618069CB
:100BB000DFF8848000F008004FF4604504900022C4
:100BC00029464046FFF7BFFCDFF8709040F6FF77FC
:100BD000002239464846FFF7B6FCDFF864A0012240
:100BE00007215046FFF7AFFC00950226012503962A
:100BF000CDE9015469464046FFF7C0FB00970396D4
:100C0000CDE9015469464846FFF7B8FB0720CDE916
:100C10000005CDE9024669465046FFF7AFFB782054
:100C20008DE8310069465046FFF7A8FB06B0BDE8E5
:100C3000F087000000100240001001400008014051
:100C4000000C0140FEE7FEE770477047FFF786BCE7
:100C500010B590B028216846FFF7B6FA14210AA80B
:100C6000FFF7B2FA02200090012004901020002427
:100C7000059007946846FFF7B7FD08B172B6FEE726
:100C80000F20CDE90A040C940D9400210AA80E94BB
:100C9000FFF7EEFC002801D072B6FEE710B010BDE1
:100CA0007047FEE70907090E002804DB00F1E02089
:100CB00080F80014704700F00F0000F1E02080F889
:100CC000141D7047FFF752FCFFF7C2FFFFF752FFFA
:100CD00000F004F800F0FEF8FAE7000070B57B4D74
:100CE000002201212846FFF72EFC08212846FFF7A5
:100CF00025FC774EB41E60B908212846FFF71EFC7C
:100D00000028F9D02078082803D201213154401C52
:100D1000207010212846FFF711FC60B910212846E9
:100D2000FFF70CFC0028F9D02078082803D2042112
:100D30003154401C207020212846FFF7FFFB60B98A
:100D400020212846FFF7FAFB0028F9D02078082850
:100D500003D207213154401C207040212846FFF760
:100D6000EDFB60B940212846FFF7E8FB0028F9D0E9
:100D7000207820B1401EC0B220700F2131540122D2
:100D800011462846FFF7DFFB002202212846FFF725
:100D9000DAFB08212846FFF7D1FB60B90821284675
:100DA000FFF7CCFB0028F9D02078082803D20221D5
:100DB0003154401C207010212846FFF7BFFB60B95A
:100DC00010212846FFF7BAFB0028F9D0217808291E
:100DD00003D205207054491C217020212846FFF7BA
:100DE000ADFB60B920212846FFF7A8FB0028F9D009
:100DF0002078082803D208213154401C207040215B
:100E00002846FFF79BFB60B940212846FFF796FB79
:100E10000028F9D02178082903D200207054491CF9
:100E20002170012202212846FFF78DFB00220421B8
:100E30002846FFF788FB08212846FFF77FFB60B9AB
:100E400008212846FFF77AFB0028F9D020780828E7
:100E500003D203213154401C207010212846FFF793
:100E60006DFB60B910212846FFF768FB0028F9D018
:100E70002178082903D206207054491C21702021B2
:100E80002846FFF75BFB60B920212846FFF756FB99
:100E90000028F9D02078082803D209213154401CB9
:100EA000207040212846FFF749FB38B940212846E9
:100EB000FFF744FB0028F9D0FFF7EAF92846BDE820
:100EC000704001220421FFF73EBB0000000C0140EE
:100ED0000200002070B5424D012211462846FFF75E
:100EE00032FB404C2078FFF725FE0120FFF734FA53
:100EF000002201212846FFF726FB01220221284675
:100F0000FFF721FB6078FFF715FE0120FFF724FAB9
:100F1000002202212846FFF716FB01220421284661
:100F2000FFF711FBA078FFF705FE0120FFF714FA89
:100F3000002204212846FFF706FB0122082128464B
:100F4000FFF701FBE078FFF7F5FD0120FFF704FA5A
:100F5000002208212846FFF7F6FA01221021284630
:100F6000FFF7F1FA2079FFF7E5FD0120FFF7F4F92B
:100F7000002210212846FFF7E6FA01222021284608
:100F8000FFF7E1FA6079FFF7D5FD0120FFF7E4F9FB
:100F9000002220212846FFF7D6FA012240212846C8
:100FA000FFF7D1FAA079FFF7C5FD0120FFF7D4F9CB
:100FB000002240212846FFF7C6FA01228021284658
:100FC000FFF7C1FAE079FFF7B5FD0120FFF7C4F99B
:100FD0002846BDE8704000228021FFF7B4BA000027
:100FE0000008014002000020010202030405060778
:100FF00008090A0B0C0D0E0F101000000000000075
:101000000000010203040607080900002C10000874
:1010100000000020240000002801000850100008F3
:1010200024000020640600004401000800000F0FA7
:101030000F0F0F0F0F0F0002000901090405000038
:101040000100000010000000000000000024F40077
:04000005080000ED02
:00000001FF
